:020000040800F2
:10000000683B00202D0200080B2200081121000887
:1000100009220008F10400080D3900080000000062
:10002000000000000000000000000000B3220008F3
:100030007906000800000000B1220008B52200087F
:10004000470200084702000847020008470200086C
:10005000470200084702000847020008470200085C
:10006000470200084702000847020008470200084C
:10007000470200084702000847020008470200083C
:10008000470200084702000847020008010500086F
:10009000F50400084702000847020008470200086C
:1000A000470200084702000847020008470200080C
:1000B00047020008470200084702000847020008FC
:1000C00047020008470200084702000847020008EC
:1000D00047020008470200084702000847020008DC
:1000E000470200084702000847020008000000001D
:1000F0000000000000000000000000000000000000
:10010000000000000000000047020008470200084D
:10011000470200084702000847020008470200089B
:10012000470200084702000847020008470200088B
:10013000470200080000000000000000470200081D
:100140004702000847020008470200080D22000885
:1001500000F002F800F05AF80AA090E8000C82447F
:100160008344AAF10107DA4501D100F04FF8AFF25C
:10017000090EBAE80F0013F0010F18BFFB1A43F085
:10018000010318475C3900007C3900000A444FF035
:10019000000C10F8013B13F0070408BF10F8014BE6
:1001A0001D1108BF10F8015B641E05D010F8016B2B
:1001B000641E01F8016BF9D113F0080F1EBF10F88F
:1001C000014BAD1C0C1B09D16D1E58BF01F801CBB2
:1001D000FAD505E014F8016B01F8016B6D1EF9D535
:1001E0009142D6D37047000000230024002500264A
:1001F000103A28BF78C1FBD8520728BF30C148BF8A
:100200000B6070471FB51FBD10B510BD00F025F97C
:100210001146FFF7F7FF03F08BFB00F043F903B43F
:10022000FFF7F2FF03BC00F04BF9000009488047DC
:1002300009480047FEE7FEE7FEE7FEE7FEE7FEE7C8
:10024000FEE7FEE7FEE7FEE704480549054A064BE0
:10025000704700003D230008510100086835002068
:10026000683B0020683700206837002053EA020C02
:1002700000F069802DE9F04B4FF00006002B1FBF06
:10028000B3FA83F503FA05F424FA05F65E4012BFCB
:100290001643B2FA82F502FA05F4C5F120051EBF35
:1002A00022FA05FC44EA0C04203556EA044C4FEAD5
:1002B000144418BF641C4FF000084FF0000990422E
:1002C00071EB030C39D3002919BFB1FA81F701FA98
:1002D00007F6B0FA80F700FA07F6C7F120071EBF4D
:1002E00020FA07FC46EA0C062037B6FBF4FCA7EB25
:1002F0000507103F07F01F0BCBF120060CFA0BFB94
:100300002CFA06F644BFB3460026202FA4BF5E4653
:100310004FF0000B5BEA060C08BF4FF0010B19EB26
:100320000B09ABFB027C48EB0608C01B06FB02CCAA
:100330000BFB03CC71EB0C01C1E70B4602464146B7
:100340004846BDE8F08B13B54FF000004FF00001B8
:10035000AFF30080BDE81C40704740EA010302464D
:1003600030B59B0710D14FF0013400E008C208C936
:100370001D1B9D4315EAC41FF8D013F0FF0102F8BE
:10038000011B0DD01B0AF8E711F8013B002B02F806
:10039000013B05D011F8013B002B02F8013BF3D1E2
:1003A00030BD10B5203AC0F00B80B1E81850203AAB
:1003B000A0E81850B1E81850A0E81850BFF4F5AF05
:1003C0005FEA027C24BFB1E81850A0E8185044BF8F
:1003D00018C918C0BDE810405FEA827C24BF51F8FC
:1003E000043B40F8043B08BF7047D20728BF31F8F0
:1003F000023B48BF11F8012B28BF20F8023B48BF41
:1004000000F8012B70474FF0000200B513469446E8
:100410009646203922BFA0E80C50A0E80C50B1F15C
:100420002001BFF4F7AF090728BFA0E80C5048BF70
:100430000CC05DF804EB890028BF40F8042B08BF0E
:10044000704748BF20F8022B11F0804F18BF00F80A
:10045000012B7047704770477047754600F02CF8C5
:10046000AE4605006946534620F00700854618B0A1
:1004700020B5FFF7E9FEBDE820404FF000064FF041
:1004800000074FF000084FF0000B21F00701AC46C9
:10049000ACE8C009ACE8C009ACE8C009ACE8C009E8
:1004A0008D46704710B50446AFF300802046BDE886
:1004B0001040FFF7B4BE000000487047043500202C
:1004C00001491820ABBEFEE726000200704710B5B8
:1004D00000220AE0835CA3F13004092C01D8845483
:1004E00001E0373B8354521CD2B28A42F2D310BD92
:1004F000FEE70000014800F03EBA00001022002094
:10050000014800F038BA0000102200200020704797
:100510000020704710B500220449054802F004F895
:100520000449034801F0FAFF002010BDFC2A002016
:10053000382200201427002070B5454A04460826BA
:100540004FF400701661106000251575D5604148A4
:10055000956001F0C7FF21463F48FFF7FEFE3E4C85
:1005600001212078532802D0452841D046E0607808
:10057000542843D1A078412840D1E07852283DD179
:10058000207954283AD162793448313A162A2BD24C
:10059000DFE802F00B0D0F121416181A1C2A2A2A73
:1005A0002A2A2A2A1E202224262801701DE002223F
:1005B00000E00322027018E00422FBE70522F9E7BD
:1005C0000622F7E70722F5E706700EE00922F1E7B9
:1005D0000A22EFE70B22EDE70C22EBE70D22E9E719
:1005E0000E22E7E70F22E5E705701D48017070BD98
:1005F00060784E2802D1A078442825D008211648DA
:10060000FFF765FF174A00202318215C5B78090774
:1006100043EA11612154830099401368801C1943F7
:1006200011600828F0DB1048104C0168491C01607B
:100630000F491368086844F82030401CC0F30A00D2
:1006400008601560002070BD0A480170FAE70000DC
:10065000FC26002038220020500000200700002047
:10066000000000200C00002024000020DC010020FD
:100670003000002001000020704772B6FEE790F8BD
:100680002020012A07D0022A05D0416A41F48021A6
:10069000416201207047006842690A4342610020BC
:1006A0007047F0B590F820500468A468012D05D07B
:1006B000022D03D0416A41F480215DE014F0406FC7
:1006C00001D1E50055D5C4F30164022C03D9416A78
:1006D00041F4000150E00125A5401D608D684FF4F4
:1006E000C0739DB1CE6835434E6845EAC6050668BD
:1006F00003EB0417F5514FF4C275076805EB0415B9
:100700000E697E51097D012905D009E00E88CD686A
:1007100045EA4655EBE701684E5946F480764E515E
:100720001179D579567941EA056195792D0445EA23
:10073000062529434FF4C676056806EB0416A95131
:100740001178D57841EA0561957852782D0445EA0B
:10075000022211434FF4C475026805EB0415515190
:10076000006803EB0411425842F00102425000209D
:10077000F0BD416A41F4001141620120F0BD00006A
:1007800010B590F82020012A07D0022A05D0416A2E
:1007900041F480214162012010BD3B48D0F8002285
:1007A00042F00102C0F80022D0F8002222F47C526C
:1007B000C0F80022D0F800224B6A42EA0322C0F8B7
:1007C00000220A7D02F01F0301229A40D0F81C3259
:1007D0009343C0F81C32CB69B3B9D0F80C329343C1
:1007E000C0F80C328C894B6864F31F434C6900EBF2
:1007F000C404C4F840320C890B6864F31F434C698D
:1008000000EBC404C4F84432CB69012B16D1D0F8F4
:100810000C321343C0F80C320C884B6864F31F434E
:100820004C6900EBC404C4F840320C89CB6864F313
:100830001F434C6900EBC404C4F844328B69002B9D
:10084000D0F804320ED01343C0F804320B69002BE9
:10085000D0F8143208D01343C0F81432096A0129C1
:1008600004D008E09343EFE79343F5E7D0F81C1278
:100870001143C0F81C12D0F8001221F00101C0F899
:100880000012002010BD000000640040704730B529
:1008900090F82040012C05D0022C03D0416A41F48D
:1008A00080215DE00468002955D02469A40754D054
:1008B0004FF4D874056804EB01142D5915F00405A4
:1008C000956005682D594ED0ED08556005682C5986
:1008D00004F00204D4604FF4DA74056804EB0114E8
:1008E0002D5905F00F05156105682D59C5F307252C
:1008F000956105682C59240C54614FF4DC7204682E
:1009000002EB0112A4581C700468A458240A5C70FD
:100910000468A458240C9C700468A258120EDA7063
:100920004FF4DE72046802EB0112A4581C710468D3
:10093000A458240A5C710468A458240C9C710468AF
:10094000A258120EDA71006881B1016941F02001EC
:100950000161002030BDE468A8E7416A41F400115C
:100960004162012030BD6D0D1560AFE7C16841F0F7
:100970002001C160EDE72DE9F05F05460068002425
:100980004669D0F804908768D0F80CB0D0F810A071
:10099000D0F81880F10748D0F90714D00121816000
:1009A000B80703D5284600F00CFA0CE0780702D50A
:1009B0004FF4006407E0380702D54FF4805402E09A
:1009C000284600F0FDF9F80516D529684FF4807027
:1009D0008860B80503D5284600F0F5F90CE07805E5
:1009E00002D544F4005407E0380502D544F48044AD
:1009F00002E0284600F0E6F9F80316D529684FF41E
:100A000080308860B80303D5284600F0DEF90CE09A
:100A1000780302D544F4004407E0380302D544F4D7
:100A2000803402E0284600F0CFF9300707D55FEAAE
:100A3000CB6004D52968102044F40074C8607007A6
:100A40004FF0080707D55FEA0B7004D52868C76028
:100A5000284600F06DF9B00706D52868C068800701
:100A600002D0284600F066F9700607D55FEACA6032
:100A700004D52968102044F480640861B00607D5C5
:100A80005FEA0A7004D528680761284600F068F913
:100A9000F00606D528680069800702D0284600F0D5
:100AA00060F9B00308D55FEAC96005D52968102050
:100AB0004860284600F056F9F00307D55FEA097050
:100AC00004D528684760284600F080F9300446D5F0
:100AD0005FEA497040D5F00504D55FEAC87001D0DF
:100AE00044F00104B00504D55FEA887001D544F0F4
:100AF0000204700504D55FEA487001D544F004048F
:100B0000300529D518F0700F26D008F07000402865
:100B100015D006DC102809D020280AD0302816D19C
:100B20000AE050280ED0602811D10EE044F00804ED
:100B30000DE044F010040AE044F0200407E044F023
:100B4000400404E044F0800401E044F48074286828
:100B5000816921F070018161296804204860002CBE
:100B600005D0686A204368622846FFF78FFEBDE81B
:100B7000F09F70B5040003D094F8200010B104E099
:100B8000012070BD204600F081F82068016841F026
:100B90000101016000F01EFA0546052604E000F0A0
:100BA00019FA401B0A2811D820684068C007F6D0FF
:100BB0002068016821F00201016000F00BFA05468F
:100BC0000BE000F007FA401B0A2806D9606A40F4DF
:100BD0000030606284F82060D2E7206840688007B7
:100BE000EFD4207E0128206801683DD021F08001EB
:100BF0000160607E01282068016838D021F0400142
:100C00000160A07E01282068016833D021F0200116
:100C10000160E07E0128206801682ED041F01001BB
:100C20000160207F01282068016829D021F0080197
:100C30000160607F01282068016824D021F0040150
:100C40000160D4E902010843D4E9041211430843C6
:100C50006168491E08432168C86100206062012064
:100C600084F82000002070BD41F08001C0E741F011
:100C70004001C5E741F02001CAE721F01001CFE7AC
:100C800041F00801D4E741F00401D9E710B586B07E
:100C9000002100910191029103910068204988424E
:100CA0003BD12048C16941F00071C161C16901F0C7
:100CB00000710491816941F00801816180691A4CD9
:100CC00000F0080004904FF48070009069462046C0
:100CD00000F090F86015009002200190032003902E
:100CE0006946204600F086F81048416821F4C0416A
:100CF00041F0E06141F4804141600022114613203F
:100D000000F0D4F9132000F0C3F90022114614209A
:100D100000F0CCF9142000F0BBF906B010BD0000C3
:100D20000064004000100240000C0140000001403F
:100D30007047000070B5084C012504F14803E570C8
:100D4000064A0021FFF7A3FD206A00B9A570E570EF
:100D5000401C206270BD000000000020F421002033
:100D6000704770477047000070B5044690F8200047
:100D7000012804D0606A40F40020606218E002207C
:100D800084F820002068016821F00101016000F072
:100D900021F905460EE000BF00F01CF9401B0A28AF
:100DA00008D9606A40F400306062052084F82000B1
:100DB000012070BD20684068C007EDD1606270BD41
:100DC0007047704770477047704770477047000022
:100DD00070B5044600F0FEF80546601C02D00448D9
:100DE0000078044400F0F6F8401BA042FAD370BD2E
:100DF000580000202DE9F84FDFF8B891002409F1E0
:100E0000040A0AF1040B23460F270BF1040EC9E074
:100E10000125A5402A40AA427DD1674ED1F804C0E1
:100E2000ACEB0608B44532D014DCBCF1030F3AD069
:100E300009DCBCF1000F2AD0BCF1010F1CD0BCF1C1
:100E4000020F31D11DE0BCF1110F17D0BCF1120F10
:100E50002AD119E0B8F5881F19D006DCB8F5803F13
:100E600015D0B8F5801F1FD111E0B8F5001F0ED0C6
:100E7000B8F5041F18D10AE0CB6815E0CB681B1D3C
:100E800012E0CB6808330FE0CB680C330CE08B68C2
:100E90002BB1012B4FF0080303D0456104E004237C
:100EA00002E0056100E00023FF2A01D8064601E0C8
:100EB00000F104064FEA840501D9A5F12005D6F812
:100EC000008007FA05FC28EA0C0803FA05F548EA51
:100ED0000508C6F800804D68ED0062D5374DAE6953
:100EE00046F00106AE61AD6924F0030605F0010588
:100EF0000095334D06EB050CDCF80850A607360FBD
:100F000007FA06F825EA0805DFF8B880404503D15E
:100F10004FF0000817E044E0DFF8AC80404502D114
:100F20004FF001080FE0DFF8A480404502D14FF0F8
:100F3000020808E0DFF89880404502D14FF003082E
:100F400001E04FF0040808FA06F848EA0508CCF872
:100F500008804D68D9F80060ED034D4601D5164371
:100F600000E096432E604D68DAF80060AD03554608
:100F700001D5164300E096432E604D68DBF8006013
:100F8000ED025D4601D5164300E096432E604D68A4
:100F9000DEF80060AD02754601D5164300E09643C9
:100FA0002E60641C0D682A46E5407FF431AFBDE831
:100FB000F88F0000000401400000111000100240F2
:100FC0000000014000080140000C014000100140F9
:100FD000001401400148806870470000580000205C
:100FE00002488168027811448160704758000020EF
:100FF000074810B5016841F010010160032000F0BE
:1010000075F80F2000F006F800F024F8002010BD5D
:101010000020024070B50D4D04464FF47A712878D7
:10102000B1FBF0F00A490968B1FBF0F001F05CF89F
:1010300048B9102C07D200222146501E00F036F885
:1010400000206C6070BD012070BD000058000020C1
:10105000640000200C4808B5816941F001018161FC
:10106000816901F001010091C16941F08051C161C4
:10107000C06900F0805000900448416821F0E061B0
:1010800041F00071416008BD0010024000000140C5
:10109000002809DB00F01F02012191404009800077
:1010A00000F1E020C0F8001170470000F0B40E4BD2
:1010B0001B680C46C3F30223C3F10705042D00D9B6
:1010C0000425191D072901D2002300E0DB1E01269B
:1010D00006FA05F1491E214099409E40761E1640B1
:1010E0003143F0BC02F013BC0CED00E0064900F007
:1010F000070208684FF6FF03184040EA0220034A3F
:1011000010430860704700000CED00E00000FA0595
:101110000068416200207047F0B50368586A39B131
:101120009C6A4FF4827600EB144400204D1E0AE0C6
:1011300040EA024098620FE006EB8007DF59401C4E
:1011400004EB1744C0B2A842F6D344EA02404FF47D
:10115000807202EB810158500020F0BDD0F8FC03F2
:1011600001F077BCC1EBC10200EB8202D0F8FC03B6
:10117000926C01F0CABBC1EBC10200EB8202D0F855
:10118000FC03D2F8082201F023BCD0F8FC0301F0E4
:1011900062BC70B504460B0601F00F00C0EBC00145
:1011A00004EB81014FF001024FF0000503D581F8F7
:1011B0003D203C3103E081F8FD5101F5FE710870DE
:1011C00094F8BC03012808D084F8BC23206801F0FF
:1011D0007FFF84F8BC53002070BD022070BD70B545
:1011E000044601F00F006268904201D9012070BDF1
:1011F0000B0601F00F01C1EBC10104EB81014FF0BF
:1012000001024FF0000503D581F83D203C3103E099
:1012100081F8FD5101F5FE718D70087094F8BC03E2
:10122000012808D084F8BC23206802F005F984F86E
:10123000BC53002070BD022070BD01F00F01C1EB56
:10124000C10100EB8100D0F8140270472DE9F04194
:1012500004460F0601F00F00C0EBC00104EB810152
:101260004FF001064FF0000503D581F83D603C3199
:1012700003E081F8FD5101F5FE7108708A60CB70C2
:101280004A7802B1C880022B00D10D7194F8BC03DA
:10129000012809D084F8BC63206801F0A7FE284625
:1012A00084F8BC53BDE8F0810220FBE770B50C4622
:1012B00001F00F05C5EBC50100EB8101C1F8082263
:1012C0000022C1E9843281F8FD2181F8FC510068D7
:1012D00001F5FE71220703D002F006F9002070BD6F
:1012E00002F012F8FAE770B504460D4601F00F005F
:1012F0006168884201D9012070BD29064FF00006BF
:101300004FF0010207D5C0EBC00104EB810181F869
:101310003D203C3107E0C5EBC50104EB810181F8BC
:10132000FD6101F5FE718A70087094F8BC03012814
:1013300007D084F8BC23206802F0AAF8280702D05E
:1013400006E0022070BD04F57171206802F052F8C9
:1013500084F8BC63002070BD70B50C4601F00F0529
:10136000C5EBC50100EB81018A640022C1E914329A
:10137000012281F83D2001F83C5F0068220703D07C
:1013800002F0B2F8002070BD01F0BEFFFAE70000E5
:101390002DE9F84F05680446284602F0A3F9002815
:1013A00079D1206802F0CAF9002874D0206802F0D0
:1013B000C5F9800704D52068416901F00201416147
:1013C000206802F0BBF904F57171C006009134D5B4
:1013D0002068816921F0100181612F6A07F00F00F8
:1013E000C0EBC00004EB8006C7F3434006F5FE7671
:1013F000022802D0062811D01AE047F6F070074202
:1014000016D0C7F30A1217462846F16802F09AF977
:10141000F0683844F060B069384408E00822284693
:10142000009902F08FF9B069C7F30A110844B0615E
:101430002068816941F010018161206802F07EF925
:1014400000034FF001094FF0080A4FF0100B61D56F
:101450000026206802F051F9074659E0F80755D0F8
:10146000F1B2206802F062F98046C0071DD005EB9A
:101470004611C1F8089B2068016C00EB4612D2F8B7
:10148000080BC24B99420CD1010405D54FF4004022
:10149000C2F8080B09E077E1800602D52020C2F8E7
:1014A000080BF1B22046FFF766FE5FEA087015D51B
:1014B00005EB4611C1F808AB2068016C00EB461043
:1014C000D0F8082BB24B994205D9110403D54FF43B
:1014D0000041C0F8081B204600F021FA5FEAC8600E
:1014E00003D505EB4610C0F808BB5FEA886004D559
:1014F00005EB46112020C1F8080B5FEA884005D5AE
:1015000005EB46114FF40050C1F8080B7F08761C1C
:10151000002FA3D1206802F011F9400348D52068BC
:1015200002F0E4F80746002640E0F8073CD0F1B2AC
:10153000206802F0E9F88046C00710D006F00F02DC
:1015400009FA02F0D5F834288243C5F8342805EBAF
:101550004610C0F80899F1B22046FFF703FE5FEA93
:10156000087003D505EB4611C1F808A95FEAC86009
:1015700003D505EB4611C1F808B95FEA486004D508
:1015800005EB46114020C1F808095FEA887004D5D0
:1015900005EB46110220C1F808095FEA086003D58F
:1015A0003146204600F038FE7F08761C002FBCD163
:1015B000206802F0C3F800280DDAD5F8040820F0FE
:1015C0000100C5F80408204600F08DF92068416943
:1015D00001F000414161206802F0B0F800050BD530
:1015E000D5F80808C00702D0204600F0B5F92068F9
:1015F000416901F400614161206802F09FF8C00474
:1016000061D5D5F8040820F00100C5F804081021C0
:10161000206802F049F8002121E000BF05EB4110ED
:101620004FF67F32C0F80829D0F8003923F40013B0
:10163000C0F80039D0F8003943F00063C0F8003931
:10164000C0F8082BD0F8002B22F40012C0F8002BB1
:10165000D0F8002B42F00062C0F8002B491C6068F3
:101660008842DBD8D5F81C0840F00110C5F81C08EA
:10167000206B60B1D5F8840840F00B00C5F88408F1
:10168000D5F8440840F00B00C5F844080CE0D5F844
:10169000140842F22B010843C5F81408D5F81008C5
:1016A00040F00B00C5F81008D5F8000820F4FE60E3
:1016B000C5F800082068009901F09CFE2068416987
:1016C00001F480514161206802F038F8800415D59A
:1016D000206801F0CBFC206801F0F8FFE06000F02A
:1016E000ADFA0146227B206802F08AF8204600F01D
:1016F000E7F82068416901F400514161206802F077
:101700001DF8000707D5204600F0F1F82068416970
:1017100001F008014161206802F010F8C00208D50C
:101720000021204600F036F82068416901F480115C
:101730004161206802F002F8800208D500212046AD
:1017400000F02CF82068416901F400114161206823
:1017500001F0F4FF400007D52046FFF7FFFC2068AA
:10176000416901F080414161206801F0E7FF4007D5
:101770000AD520684568680702D52046FFF705FDB1
:101780002068416829434160BDE8F88F0A31544F11
:101790000A30544FD0F8FC0301F0A8B9D0F8FC038C
:1017A00001F0A6B92DE9F0418AB0040005D094F803
:1017B000BD032668002520B108E001200AB0BDE87D
:1017C000F08184F8BC53204600F05EF8032084F8D2
:1017D000BD03F06BC00500D42561206801F08EFDCB
:1017E00004F11001282288466846FEF7DAFD94E8E5
:1017F0000F0001F049FC0226C8BB0021206801F05F
:10180000C0FF002001270EE0C0EBC00104EB810106
:1018100081F83D7001F83C0FC880CD708D60CD60BF
:10182000401CC0B24D6161688142EDD8002011E0DA
:10183000C0EBC00104EB810181F8FD5181F8FC018E
:1018400081F8FF51C1F80452C1F80852401CC0B2DF
:10185000C1F8105261688142EAD8282241466846A0
:10186000FEF79FFD94E80F0001F0B4FC10B184F87E
:10187000BD63A2E784F8385084F8BD73206801F096
:101880009BFC00209AE7000008B50068B0F1A04F6B
:1018900012D10A48416941F48051416140690022F6
:1018A00000F48050009011464320FFF7FFFBBDE895
:1018B00008404320FFF7ECBB08BD000000100240C9
:1018C00070B50446C0680125022801D0FEF7D5FE98
:1018D0002946D4F8FC0301F060F9D4F8FC03BDE814
:1018E000704001F01CB9D0F8FC0301F040B9D0F809
:1018F000FC0301F046B910B5044690F8BC0301287A
:101900000BD0012084F8BC0384F83810206801F063
:1019100066FF002084F8BC0310BD022010BDD0F883
:10192000FC2300F57171104601F043B910B504466F
:1019300090F8BC0301280CD0012084F8BC03206877
:1019400001F09CFE206801F029FC002084F8BC0313
:1019500010BD022010BD000010B50446D0F8FC03F5
:1019600001F066F92068D0F8001E41F00101C0F8CE
:10197000001E206A002804D00248016841F00601D8
:10198000016010BD10ED00E02DE9F8430446007839
:101990005B4DC0074FF0010951D0E8690026C00037
:1019A00008D4E86940F08050E861E869012600F059
:1019B0008050009053480168C90512D401688046E0
:1019C00041F480710160FFF705FB074605E000BFA9
:1019D000FFF700FBC01B642877D8D8F80000C005CB
:1019E000F6D5286A10F440701ED0A18801F4407129
:1019F000814219D0286A444920F44070C1F800900F
:101A000000220A602862C0070ED0FFF7E3FA0746FB
:101A100041F2883805E000BFFFF7DCFAC11B414501
:101A200053D8286A8007F7D5286A616820F4407087
:101A3000084328621EB1E86920F08050E8612078F0
:101A4000800705D56868A16820F4404008436860B5
:101A50002078400705D5E86AE16820F400300843A3
:101A6000E8622078000705D5E86A216920F4802023
:101A70000843E862E86A800302D4E86A400333D589
:101A80002868C00028D42868400105D5E86AA16903
:101A900000F0F000884225D1E86AA16920F0F0004A
:101AA0000843E862E86A616920F470400843E8622C
:101AB0001649C1F87090FFF78DFA064608E004E079
:101AC000FFF788FA801B642802D90320BDE8F88359
:101AD00028688000F4D507E0E86A616900F4704086
:101AE000884201D00120F1E72078C00605D568685A
:101AF000E16920F48000084368600020E6E7000008
:101B00000010024000700040400442420000424287
:101B10002DE9F0470F46050061D0434E306800F0D4
:101B20000700B84209D2306820F00700384330601F
:101B3000306800F00700B84251D128683B4C81075B
:101B400012D5400703D5606840F4E06060602878F3
:101B5000000703D5606840F4605060606068A96861
:101B600020F0F000084360602878C00728D068683B
:101B7000012810D02168022810D0890700292EDA08
:101B8000616821F0030101436160FFF723FA804699
:101B900041F288390DE021688903EFE78901EDE71B
:101BA000FFF718FAA0EB0801494502D90320BDE868
:101BB000F0876068696800F00C00B0EB810FEFD12E
:101BC000306800F00700B8420BD9306820F00700F9
:101BD00038433060306800F00700B84201D001207F
:101BE000E5E72878400705D56068E96820F4E060FB
:101BF000084360602878000706D56068296920F4EA
:101C0000605040EAC100606000F01EF86168084A58
:101C1000C1F30311515CC8400649086006480068DA
:101C2000FFF7F8F90020C2E7002002400010024050
:101C3000D03A0008640000205C00002001480068E1
:101C40007047000064000020F0B523A289B00FCADD
:101C500004AC84E80F0024A10FC98DE80F002649C9
:101C60004A68264802F00C03042B2FD0082B2DD1F4
:101C700004A8C2F38343C45CD00329D5C86A00F02A
:101C80000F001DF80020C86AC00316D5C86AC96ACB
:101C9000C0F30310C1F30321401C891CA0FB0223E5
:101CA000A1FB0416154F0025A1FB070C06FB07C678
:101CB00001FB0561FEF7DAFA03E010486043B0FB70
:101CC000F2F09DF81D10A14200D1400809B0F0BD0E
:101CD0000B486043FAE70000000004050607080906
:101CE00000000000000D00000102030405060708C3
:101CF000090A0B0C0D0E0F100010024000127A00A2
:101D000000093D002DE9F84F040070D02078F14D16
:101D1000C00749D06868C0F38100012807D068680F
:101D2000C0F38100022809D16868C00306D528687D
:101D3000800339D5A0680028E7D035E0A068B0F569
:101D4000803F0BD010B1B0F5A02F11D0286820F43F
:101D500080302860286820F4802002E0286840F461
:101D600080302860A06890B1FFF734F906460AE099
:101D7000286840F480202860F0E700BFFFF72AF9C8
:101D8000801B642876D828688003F7D50CE0FFF71D
:101D900021F9064605E000BFFFF71CF9801B642807
:101DA000F0D828688003F7D42078CB4E80074FF016
:101DB00001094FF000073AD5686810F00C0F07D002
:101DC0006868C0F38100022809D16868C00306D49E
:101DD0002868800715D56069012808D111E060697D
:101DE000B8B1C6F80090FFF7F5F8804606E042E18A
:101DF000FFF7F0F8A0EB08000228C3D82868800796
:101E0000F6D52868A16920F0F80040EAC1002860F2
:101E10000DE03760FFF7DEF8804605E0FFF7DAF8FF
:101E2000A0EB08000228ADD828688007F6D42078F7
:101E300000072ED5A948E169E9B1C0F80090FFF785
:101E4000C9F8804606E000BFFFF7C4F8A0EB080021
:101E5000022897D8686A8007F6D5A1484FF4FA514E
:101E60000068B0FBF1F0009000BF0098411E0091A7
:101E7000FAD20EE0B0E00760FFF7ACF8804605E06C
:101E8000FFF7A8F8A0EB0800022889D8686A800745
:101E9000F6D42078400763D5E8694FF00008C00009
:101EA00009D4E86940F08050E861E8694FF0010822
:101EB00000F0805000908B480168C90512D4016879
:101EC000834641F480710160FFF784F8824605E0A3
:101ED000FFF780F8A0EB0A0064287DD8DBF800004B
:101EE000C005F5D5206901280AD008B1052813D00E
:101EF000286A20F001002862286A20F0040002E02D
:101F0000286A40F001002862206941F2883B98B1BC
:101F1000FFF760F882460BE0286A40F00400286270
:101F2000EEE700BFFFF756F8A0EB0A01594553D87A
:101F3000286A8007F6D50CE0FFF74CF8824605E0EA
:101F4000FFF748F8A0EB0A01594545D8286A8007F1
:101F5000F6D4B8F1000F03D0E86920F08050E861B2
:101F6000E06AD0B36968C90307D56968C1F3810124
:101F7000022902D1E96AC9037DD4022808D0E86A9F
:101F800020F48030E862B766FFF724F880463BE033
:101F90002868C00005D5E86A616B00F0F00088424F
:101FA00069D1B766FFF716F8804605E0FFF712F82B
:101FB000A0EB0800642874D828680001F6D4E86A09
:101FC000616B20F0F0000843E862E86A216B20F4BE
:101FD00070600843E86201E063E018E0C6F86890CA
:101FE000FEF7F8FF804605E0FEF7F4FFA0EB0800DF
:101FF000642856D828680001F6D508E0FEF7EAFF05
:10200000A0EB080064284CD828680001F6D4206AA8
:1020100090B36968C1F38101022949D0022837666B
:1020200003D0FEF7D7FF04463EE0FEF7D3FF074696
:1020300005E000BFFEF7CEFFC01B022831D828689C
:102040008001F7D4606AB0F5803F09D1E86A616821
:102050000843E862E86AE16820F00F000843E8629C
:10206000D4E909010843696821F4741108436860E0
:10207000C6F8609001E028E029E0FEF7ABFF0446D7
:1020800005E000BFFEF7A6FF001B022809D828685C
:102090008001F7D51BE000BFFEF79CFF001B022864
:1020A00002D90320BDE8F88F28688001F4D40EE03F
:1020B0000128F7D06868626A00F48031914204D147
:1020C000A16A00F47010884201D00120EAE70020E4
:1020D000E8E7000000100240000042428004424253
:1020E000640000200070004010B5401EB0F1807FF9
:1020F00001D3012010BD4FF0E02460610F21601773
:1021000001F005FC0020A06107202061002010BD27
:10211000FEE70000F0B500230A24302537261F46CD
:1021200011E000BFB4EB107F02D905EB107C01E099
:1021300006EB107C01F813C001EB430C00015B1CA3
:102140008CF80170DBB29342ECD3F0BD10B51848A7
:102150008AB01649016002210024C0E901144FF43D
:102160006021C0E903414FF4801141610476447657
:102170008476C47604774477FEF7FBFC08B172B628
:10218000FEE70120CDE905404FF47E41079003941E
:10219000CDE90014089004940E2009900294694639
:1021A0000348FEF7EDFA0AB010BD000000640040DD
:1021B0001022002010B500220F49104800F07EFBCD
:1021C00008B1FEF75AFA0E490C4800F057FD08B165
:1021D000FEF753FA0B49094800F098F908B1FEF7E9
:1021E0004CFA064800F0A0FD002803D0BDE81040DE
:1021F000FEF743BA10BD000068000020382200201E
:10220000A4010020B8000020FEE7FEE70148FFF728
:10221000BFB80000043100202DE9F0470E46C1EBA5
:10222000C60100EB81040568D4E914103C348842EF
:1022300002D90120BDE8F087081AA168814200D2C6
:102240000846C01C870805EB461817E0A0EB0109FB
:10225000A068484500D2814609F1030087081FFAAB
:1022600089F3F2B22846E16801F03EFBE16801EB38
:102270000900E060A16901EB0900A061D8F8180924
:1022800080B2B84205D3D4E90501814201D20028C9
:10229000DCD1D4E90501884208D806F00F010120FD
:1022A0008840D5F834188143C5F834180020C1E7B8
:1022B00070477047FEF794BE70B59CB038216846F1
:1022C000FEF7A1F814210EA8FEF79DF8202113A80F
:1022D000FEF799F8012500242804CDE9020402261E
:1022E000CDE908600095059501944FF4E010CDE923
:1022F0000A046846FFF706FD08B172B6FEE70F2034
:10230000CDE90E064FF48060CDE9104002210EA801
:102310001294FFF7FDFB08B172B6FEE71020139090
:102320001A9413A8FFF730FB08B172B6FEE7024813
:1023300005671CB070BD00000000424270472DE9E7
:10234000F041D0F8C032D0F8B822DAB101EB810404
:1023500000EB84040025E6694EB1C1EBC10703EB35
:1023600087035B6CB6FBF3F703FB176323B1C2F87B
:1023700014520020BDE8F08100231A46E56100F008
:1023800060FCF6E70220F5E770B50546D0F8B842E4
:1023900000F06CFBC4F80C02D5F8B80248B1D5F8CF
:1023A000BC12D4F80402CA6804F5037190470020F7
:1023B00070BD022070BD70B504460026812100F07A
:1023C0009BFA002501212046E56200F095FA822162
:1023D0002046C4F86C5100F08FFA2564D4F8B80296
:1023E00048B1D4F8BC0204F52E74406880472068D8
:1023F00000F0F7FD2560304670BD10B5D0E9AE4164
:1024000059B194F80002FF2807D08B6894F8012294
:1024100021469847FF2084F80002002010BD0000EC
:102420000A21018000487047CC0000204321018030
:10243000004870471C01002043210180004870477C
:10244000D80000204321018000487047600100202F
:102450002DE9F04104460026007C4FF40077012569
:1024600090B3402302228121204600F043FB402309
:10247000E56202220121204600F03CFB08230322F2
:1024800082212046C4F86C5100F034FB4FF40770F1
:10249000256400F0A7FDC4F8B802F8B10546D4F8E9
:1024A000BC02006880470020C5F81402C5F8180275
:1024B000207CD5F8042298B140230121204600F069
:1024C00025FB3046BDE8F081FFE73B460222812133
:1024D000204600F00FFB3B46E562CAE70126F0E725
:1024E0003B46EAE710B5D0F8B81269B1027C002A81
:1024F000D1F8042205D04023012100F007FB002081
:1025000010BD4FF40073F7E7022010BD0246022011
:10251000002902D00020C2F8BC127047D0F8B802DF
:10252000C0F8041200207047D0F8B802C0F810229A
:10253000C0F80812002070472DE9FC410546D0F88C
:10254000B87200208DF80000ADF804000646087847
:102550000C4610F0600121D020293BD1E288AAB1BD
:102560000006607807D5D5F8BC128B6839469847C5
:10257000E288394626E087F80002A07987F8010250
:10258000E2883946284600F04FF828E0D5F8BC121A
:10259000607800228B682146984720E0607820B15F
:1025A0000A2809D00B2815D110E095F89C020328C1
:1025B00010D1022201A905E095F89C02032809D157
:1025C00001226946284600F049F808E095F89C0287
:1025D000032804D02146284600F01BF80226304686
:1025E000BDE8FC8110B5D0F8B422526890470020B5
:1025F00010BD134610B50A46002100F087FA0020EE
:1026000010BD134610B50A46002100F01AFB002049
:1026100010BD10B50446802100F0F8FA2046BDE850
:102620001040002100F0F2BA10B50323C0F85C217D
:10263000C0F89432C0F8602113460A46002100F029
:1026400065FA002010BD10B505210023C0F89412D2
:102650001A46194600F05AFA002010BD10B50223A0
:10266000C261C0F89432026213460A46002100F0AB
:10267000E8FA002010BD10B504210023C0F8941220
:102680001A46194600F0DDFA002010BD10B50A46C2
:10269000024903A000F0E2F8004810BDFC2400202D
:1026A00043444320436F6E66696700001220088030
:1026B000004870478800002010B50A46024903A070
:1026C00000F0CCF8004810BDFC2400204344432017
:1026D000496E7465726661636500000004200880BD
:1026E000004870478400002010B50A46024903A044
:1026F00000F0B4F8004810BDFC24002053544D698C
:1027000063726F656C656374726F6E6963730000EA
:1027100010B50A46024903A000F0A0F8004810BD19
:10272000FC24002053544D33322056697274756175
:102730006C20436F6D506F727400000010B51A204A
:1027400008800A480168001D0468001D0068081818
:1027500009D008220649FFF7DDFC054904221031A3
:102760002046FFF7D7FC0248801E10BDE8F7FF1F88
:102770009E000020F8B504460020ADF8000048880F
:102780000D46010A082948D2DFE801F0470409177D
:1027900047473C45D4F8B012207C0A6819E0207CF9
:1027A00002260028D4F8B40205D0C16A68468847DA
:1027B000014646703EE0816AF8E7C0B206282CD296
:1027C000DFE800F0030A1014181CD4F8B0024268C5
:1027D00005E0694690471CE0D4F8B0028268E2B197
:1027E000207CF6E7D4F8B002C268F8E7D4F8B0026B
:1027F0000269F4E7D4F8B0024269F0E7D4F8B00215
:102800008269ECE7207C40B9D4F8B402416B684699
:10281000884701460EE0207C20B129462046FFF77C
:10282000F8FEF8BDD4F8B402016B6846884701464B
:1028300007204870BDF8000048B1EA8852B18242D2
:1028400000D90246ADF800202046FFF707FFE888D0
:102850000028E6D12046FFF70EFFF8BD70B5002333
:1028600000281ED00446002502E06D1CEDB2641C59
:102870002678002EF9D1022404EB45041480127846
:10288000CA545B1C0322CA5400245B1C06E0CA54D1
:102890005B1CDAB28C54521CD3B2401C0278002A62
:1028A000F5D170BD01004FF0000004D0012901D026
:1028B000022901D0022070470120704710B580B175
:1028C000D0F8B43213B10023C0F8B43209B1C0F863
:1028D000B012012180F89C12027000F0CBF80020A9
:1028E00010BD022010BD10B5D0F8C002FEF777FC75
:1028F000BDE81040FFF7D6BF10B5D0F8C002FEF714
:1029000048FCBDE81040FFF7CDBF2DE9F041174668
:10291000044651B1D4F8B40242691AB194F89C0249
:10292000032851D00220BDE8F081D4F8943200256C
:1029300004F11400022B03D0042B3AD0C3B33CE0C3
:10294000D0E903639E4207D9F11AC1608AB23946C1
:102950002046FFF756FE12E08068B0FBF3F103FB60
:10296000110199B9984211D3D4F8981288420DD226
:10297000002211462046FFF744FEC4F89852002377
:102980001A461946204600F0C1F816E0D4F8B40201
:10299000C16829B194F89C02032801D120468847D8
:1029A0008021204600F032F92046FFF74CFE04E07B
:1029B000FFE78021204600F029F994F8A0020128C1
:1029C00004D184F8A05201E0204690470020AAE7F5
:1029D00070B51546044649B1D4F8B40282691AB1FB
:1029E00094F89C02032830D0022070BDD4F89412D1
:1029F00004F5AA70032902D005291ED027E0D0E9EA
:102A000003218A420BD9531AC3600846834200D37C
:102A100003469AB229462046FFF7EBFD17E0D4F8AB
:102A2000B402016929B194F89C02032801D120461F
:102A300088472046FFF71FFE09E000200146C4F842
:102A40009402204600F0E2F801E020469047002082
:102A500070BD0020704710B5012180F89C12D0F89D
:102A6000B422017952689047002010BDD0F8C0020E
:102A7000FEF7E3BB10B5017821BB1349C1F8FC0395
:102A8000C0F8C0124FF0A040086004204860022047
:102A9000C86088610020C8610862C8620846FEF705
:102AA00081FE08B1FDF7E9FD80210748FEF730FB04
:102AB000402200210448FEF72FFB8022012102481A
:102AC000FEF72AFB002010BD043100200A0601F0A9
:102AD0007F01D0F8C002C1EBC10100EB810002D53B
:102AE00090F83E00704790F8FE0170470020704754
:102AF0000020704710B51C461346D0F8C00222468D
:102B0000FEF7A4FBBDE81040FFF7CCBE10B5D0F82F
:102B1000C002FEF7CBFBBDE81040FFF7C3BE70B5A7
:102B20000022044640231146FFF7E4FF402601251A
:102B3000C4F864613346002280212046C4F858510D
:102B4000FFF7D8FF6662A56184F89C520020C4F8A4
:102B500094026060C4F8A402D4F8B80228B1D4F892
:102B6000B4020021426820469047002070BD90F8D2
:102B70009C12042903D190F89D1280F89C12002029
:102B8000704710B590F89C12032904D1D0F8B41204
:102B9000C96901B18847002010BD01740020704749
:102BA00010B5D0F8C002FEF7A6FEBDE81040FFF752
:102BB00079BE70B5044600F52A70054600F04AF863
:102BC0000120C4F89402B4F8AE02C4F8980294F854
:102BD000A80210F01F010AD001290DD0022910D03F
:102BE00000F08001204600F011F8002070BD294659
:102BF000204600F09EF8F8E72946204600F0CAF982
:102C0000F3E72946204600F01DF9EEE710B5D0F8AD
:102C1000C002FEF768FBBDE81040FFF743BE10B5E9
:102C2000D0F8C002FEF782FEBDE81040FFF73ABEC2
:102C300090F89C1280F89D12042180F89C120020CC
:102C4000704710B5D0F8C002FEF786FBBDE8104013
:102C5000FFF728BE0A7802704A7842708A78CB78EB
:102C600002EB032242800A794B7902EB0322828035
:102C70008A79C97902EB0121C180704702460020A0
:102C800011B1C2F8B41270470220704710B5D0F8E5
:102C9000B42202241AB11268904700B900242046D9
:102CA00010BD000070B50E461E4D8978044629708F
:102CB000012931D894F89C0202280BD003280FD0A8
:102CC00031462046FFF7A5FC29782046BDE8704034
:102CD000FFF788BCD9B10320616084F89C0209E049
:102CE00071B16068884212D0C1B22046FFF77AFC09
:102CF000297861602046FFF7C9FF02280CD006E062
:102D0000022084F89C0220466160FFF76BFC20469D
:102D1000BDE87040FFF7AFBC31462046BDE87040CB
:102D2000FFF777BCC800002010B5FFF778FF002040
:102D300010BD2DE9F0410A78002612F0600208D09B
:102D4000202A01D0402A70D1D0F8B422926890474E
:102D50006DE04B78002201250A2B66D2DFE803F0F4
:102D6000405D6557650805652C29FFF703FD5EE0AA
:102D700004468888D8B9C888C8B94888802816D237
:102D800000F07F0794F89C02032810D084F89E720C
:102D900039462046FFF704FF2046FFF76CFC1FB1C1
:102DA000022084F89C0242E084F89C523FE02046D6
:102DB0003BE0FFF777FF3AE0CB88012B35D190F865
:102DC0009C32012B04D0022B02D0032B2DD104E026
:102DD0008260012200F1080116E00122011D13E0CA
:102DE00090F89C22012A03D0022A01D0032A1CD188
:102DF000CA88022A19D1C560D0F8A41209B10321EA
:102E0000C160022200F10C01FFF728FC0FE04988A5
:102E100001290CD1C0F8A45211E090F89C32012B8A
:102E200008D0022B06D0032B04D0FFF7F2FB30466C
:102E3000BDE8F08149880129F9D1C0F8A422FFF743
:102E40001AFCF4E72DE9F0410A4604461078002701
:102E5000097910F060030AD0202B01D0402B50D10B
:102E6000D4F8B40211468368204698478FE0C0F337
:102E70004110012806D05078D0B301282AD0032869
:102E80003FD107E0D4F8B402114683682046BDE87C
:102E9000F041184794F89C02022802D0032872D10E
:102EA0000AE071B380296ED02046FFF7AFFE802183
:102EB0002046FFF7ABFE6AE0508838B931B180296F
:102EC00004D0D08810B92046FFF7A0FE2046FFF7B7
:102ED000D2FB5CE094F89C020228E2D0032852D195
:102EE000508898BB4806F1D02046FFF7FCFCEDE780
:102EF000FFE794F89C020026022803D0032842D161
:102F000012E040E009B180293DD1080601F07F00C0
:102F100000EB800004EB800101D5143101E001F5E4
:102F2000AA7102220E602AE0080601F00F0000EBF1
:102F3000800004EB80000AD5806920B301F07F0097
:102F400000EB800004EB800514350BE01FE0D0F8A7
:102F50005801C0B101F07F0000EB800004EB800558
:102F600005F5AA7541B1802906D02046FFF7AEFDD0
:102F700010B10120286000E02E6002222946204680
:102F8000FFF76CFB03E011462046FFF742FB384693
:102F9000BDE8F08170B5054608780C4610F0600079
:102FA00003D0202801D0402816D195F89C02012892
:102FB00003D0022801D003280ED1207901280BD894
:102FC000D5F8B402826828469047E188014306D1CB
:102FD0002846FFF750FB02E02846FFF71AFB0020C7
:102FE00070BD704700487047E42E002070B50A7825
:102FF000012302F00F054E78AB401B4CD0F81C5853
:10300000012E17D045EA0343C0F81C3800EB4210EC
:10301000D0F8002B12040BD4D0F8002B0B89C97800
:10302000C3F30A031A4344EA81410A43C0F8002B60
:10303000002070BD9BB21D43C0F81C5800EB42102D
:10304000D0F800391B04F3D4D0F800390D89C978C1
:10305000C5F30A0589042B4341EA82510B432343FC
:10306000C0F80039E4E7000000800010D0F8001933
:103070006FF30A01C0F80019D0F8041841F4807108
:10308000C0F804180020704710B5C16841F0400135
:10309000C16001230D49032202E05B1C8B420FD863
:1030A0000469002CF9DA036943F001030361012389
:1030B00002E05B1C8B4203D80469E407F9D10022CB
:1030C000816B41F480318163104610BD400D0300D7
:1030D00030B54C780A78012300EB4212012C2CD039
:1030E000D2F8004B002C0BDAD2F8004B44F000640D
:1030F000C2F8004BD2F8004B44F08044C2F8004BB9
:10310000D0F83C580C7804F00F0403FA04F425EAD4
:103110000444C0F83C48D0F81C48097801F00F017D
:103120008B4024EA0341C0F81C18D2F8000B19495F
:103130000840C2F8000B002030BDD2F80049002C36
:103140000BDAD2F8004944F00064C2F80049D2F822
:10315000004944F08044C2F80049D0F83C480D785A
:1031600005F00F0503FA05F5ADB2AC43C0F83C48D5
:10317000D0F81C48097801F00F018B4099B28C43BC
:10318000C0F81C48D2F8000903490840C2F80009F9
:10319000D1E700000078F3EF007833ECD0F8001EA0
:1031A00021F00301C0F8001ED0F8041821F002013C
:1031B000C0F8041800207047D0F8001E21F0030169
:1031C000C0F8001ED0F8041841F00201C0F804183D
:1031D000002070472DE9F04700260446DDF83CA0AA
:1031E000DDF82C900F463046354600BF04EB8001D9
:1031F000C1F80451401C0F28F8D3A06B40F4002103
:103200002046A163C4F8005ED4F80018C4F8001882
:10321000D4F8001841F00301C4F80018102100F0A0
:1032200043FA00B10126204600F02EFA00B1012633
:10323000C4F81058C4F81458C4F81C5800204FF0B3
:1032400000634FF090484FF67F3214E004EB4011DA
:10325000D1F800C9BCF1000F06DA10B1C1F800893D
:1032600004E0C4F8003901E0C1F80059C1F8105970
:10327000C1F80829401C8742E8D8002015E000BFAB
:1032800004EB4011D1F800CBBCF1000F06DA10B10D
:10329000C1F8008B04E0C4F8003B01E0C1F8005B1A
:1032A000C1F8105BC1F8082B401C8742E8D8D4F85D
:1032B000100820F48071C4F81018A5616FF08040E8
:1032C0006061A06940F01000A061A069094908434D
:1032D000A061B9F1000F03D0A06940F00800A0611F
:1032E000BAF1010F03D1A06903490843A061304638
:1032F000BDE8F08700383C8004000040816821F080
:10330000010181600020704730B50C784D78384B52
:10331000E2B200EB4212012D24D0D2F8100B6FF371
:103320001200C2F8100BD2F8100B1840C2F8100BA4
:10333000486908B188684861D2F8100B40F4002051
:10334000C2F8100BD2F8100B8968C1F312010843C0
:10335000C2F8100BD2F8000B40F00440C2F8000B8A
:10336000002030BD4D69002DD2F8105932D06FF3D6
:103370001205C2F81059D2F810591D40C2F8105960
:103380004D698B689D4200D94B61D2F8103943F4E6
:103390000023C2F81039D2F810394D69C5F312056F
:1033A00053EA0503C2F8103900EB4412D2F8003991
:1033B00043F00443C2F800394A69002AD0D0D0F85B
:1033C0003428097801F00F03012199400A43C0F81D
:1033D0003428C5E71D40C2F81059D2F8103943F41B
:1033E0000023C2F81039D2F810396FF31203D9E76D
:1033F000FFFF07E0016C0F4A914203D9D0F8001B90
:10340000002914DB0021C0F8101BD0F8101B41F478
:103410000021C0F8101BD0F8101B41F01801C0F8B3
:10342000101BD0F8101B41F0C041C0F8101B002049
:10343000704700000A30544F4A780B78012A00EB9D
:1034400043100BD0D0F8002B22F40012C0F8002B50
:10345000C978032914D0022912D017E0D0F8002926
:1034600022F40012C0F80029C978032901D00229EA
:103470000CD1D0F8001941F08051C0F8001905E0D6
:10348000D0F8001B41F08051C0F8001B00207047AD
:103490000A784B78D1B200EB4110012B12D0D0F852
:1034A000001B002906DB2AB1D0F8001B21F0804167
:1034B000C0F8001BD0F8001B41F40011C0F8001B3D
:1034C00000207047D0F80019002906DB2AB1D0F897
:1034D000001921F08041C0F80019D0F8001941F41A
:1034E0000011C0F80019EBE770B50D784E78624B0B
:1034F000EAB26FF0604400EB4212012E27D0D2F8FE
:10350000105B6FF31205C2F8105BD2F8105B1D4020
:10351000C2F8105B4D69002D73D08B681D446D1E81
:10352000B5FBF3F3D2F8105B9BB204EAC344254326
:10353000C2F8105BD2F8104B8D685D43C5F31203DF
:103540001C43C2F8104BC97801296FD08CE04E693A
:103550001EB3D2F810696FF31206C2F81069D2F8E0
:1035600010691E40C2F810694E698B681E44761EB1
:10357000B6FBF3F304EAC343D2F810492343C2F87D
:103580001039D2F810394C69C4F312042343C2F83D
:103590001039CB78012B10D01BE0D2F810491C4019
:1035A000C2F81049D2F8103943F40023C2F8103998
:1035B000D2F810396FF3120309E0D2F8103923F072
:1035C000C043C2F81039D2F8103943F00053C2F8A2
:1035D000103900EB4512D2F8003943F00443C2F829
:1035E0000039CB78012B0DD04A697AB3D0F8342852
:1035F000097801F00F03012199400A43C0F83428EB
:1036000038E014E0D0F80838DB05D2F8003902D4ED
:1036100043F0005301E043F08053C2F800398A8A36
:1036200093B20A78C96800F05FF923E00FE0D2F89E
:10363000103B8C68C4F312042343C2F8103BD2F849
:10364000103B43F40023C2F8103B7CE712E0D0F8B3
:103650000808C005D2F8000B02D440F0005001E089
:1036600040F08050C2F8000BD2F8000B40F004404C
:10367000C2F8000B002070BDFFFF07E0816841F039
:103680000101816000207047002110220261054A7B
:10369000491C914201D9032070470369DB06F7D426
:1036A00000207047400D03000022202343EA8111CF
:1036B00001610549521C8A4201D903207047036900
:1036C0009B06F7D400207047400D0300D0F808088F
:1036D00000F00600022803D0062801D00F20704712
:1036E00002207047406900F001007047D0F81818B8
:1036F000D0F81C08084080B27047D0F81818D0F8ED
:103700001C080840000C704710B5D0F81038D0F8ED
:10371000342801F00F0400EB4110E24002F00102F6
:10372000D0F8080943EAC212104010BD00EB411165
:10373000D1F8081BD0F81408084070474169806927
:103740000840704730B503460846940802F003016C
:10375000002203F5805303E01D6840F8045B521C0F
:10376000A242F9D300290BD01C680022D50024FA0C
:1037700005F3491E521C090400F8013B090CF5D160
:1037800030BD70B50446C068002520F0C040E06040
:10379000012901D079B120E0E06840F00050E060FC
:1037A0000120FDF715FB60696D1C10F0010F10D1B1
:1037B000322DF5D30DE0E06840F08040E06001205C
:1037C000FDF706FB60696D1C10F0010F01D0322D72
:1037D000F5D3322D01D0002070BD012070BDD0F88E
:1037E000002822F4FE62C0F80028D0F800284FF428
:1037F000FE6303EA01110A43C0F800280020704765
:10380000022A2ED1264A274B0A449A4201D20F217E
:1038100038E0254A254B0A449A4201D20E2131E074
:10382000234A244B0A449A4201D20D212AE0224A1B
:10383000224B0A449A4201D20C2123E0204A214B18
:103840000A449A4201D20B211CE01F4A1F4B0A4432
:103850009A4201D20A2115E01D4A1E4B0A449A429F
:1038600001D209210EE01C4A1C4B0A449A4201D2A3
:10387000082107E01A4A11441A4A914201D207214D
:1038800000E00621C26822F47052C260C2684FF4A0
:10389000705303EA81210A43C26000207047000090
:1038A000405327FF00350C00401E1BFF40420F0015
:1038B00000DC0BFF804F1200808CF9FE20D6130035
:1038C00060B6E5FE60E3160000D3CEFE40771B0035
:1038D000C05BB3FEC091210000CA91FE2075380084
:1038E000E05459FEE09C410010B5DB1C9C0800EB45
:1038F0000230002300F5805004E000BF51F8042B93
:1039000002605B1CA342F9D3002010BDFEE709074B
:10391000090E002804DB00F1E02080F80014704755
:1039200000F00F0000F1E02080F8141D7047000047
:1039300008B5FDF75DFBFEF7BFFC5148816941F01A
:1039400020018161816901F020010091816941F0CC
:1039500004018161816901F004010091816941F0F4
:1039600008018161806900F0080000904FF4FA704E
:10397000FDF72EFAFEF71EFCFEF7E8FB4148FDF7C7
:10398000F3F902213F48FCF77AFE3E4E4FF40070F7
:10399000343E3D4D30600820002730613775F760B8
:1039A000A5F13404B760207878B10128FBD1E07923
:1039B000354B00F5FE6033493060183B324A3439EC
:1039C0003048FCF76EFE2770EDE7A0780128EAD1B9
:1039D0002CE0DFF8B8C0E36A921C5CF823005B1CA3
:1039E000010E2970010C6970010AA970E870C3F317
:1039F0000A005CF82010401C0B0E2B710B0C6B7135
:103A00000B0AAB71E971C0F30A00C4E90A201E4B2E
:103A10001D4A183B0CF500511A48FCF742FEA071F4
:103A20006179891C6171E7700028FDD1D4E9090230
:103A3000824202D2E0780128CBD0616A8A42B2D3B6
:103A4000452028704E20687044200F4B0D49A87007
:103A5000183B0D4A34390B48FCF723FE6420FDF770
:103A6000B7F900F019F8BFF34F8F09480168094A08
:103A700001F4E06111430160BFF34F8F00BFFDE728
:103A8000001002401022002034000020DC01002041
:103A90000CED00E00400FA050C4800210122017041
:103AA00041708170C2700271417182718160C16028
:103AB0000161416181610162416200238162C0E96B
:103AC0001033C171C1620163704700000000002023
:103AD00000000000000000000102030406070809BE
:103AE000003B000800000020DC0100008C01000801
:103AF000D03B0008DC0100208C390000E801000800
:103B0000411A010201140914162100091C535441E1
:103B10005254464646293C82101324F413AD261B0A
:103B200008DD041AE9041311271B083D041A8D0C43
:103B30001AB9041704030904120114020202164000
:103B4000830440571D0201020341031A1A031B1587
:103B5000054819041A0D041A390441130A063202E1
:103B60002A407C1C09024347111DC03209048D1AEA
:103B7000020B1305241D10010524ED100804240276
:103B800002052406170107058203081C1009047D9D
:103B9000320A1D07050102432C0705810709384435
:103BA0002A40072A8107112B0907440A3B044413C2
:103BB00051241C08B723E84A25E81AFB0C1A3F04D5
:103BC0001A8904C11A39281A2D041A45041A210425
:04000005080001519D
:00000001FF
